S01900004C45442053657175656E63652056322E302E73726563D7
S11300000C942A000C9451030C947A030C943C0035
S11300100C943C000C943C000C943C000C943C006C
S11300200C943C000C943C000C943C000C943C005C
S11300300C943C000C943C000C943C000C943C004C
S11300400C943C000C943C000C943C000C943C003C
S11300500C943C0011241FBECFE5D8E0DEBFCDBF19
S113006020E0A0E6B0E001C01D92A736B207E1F798
S11300700E9434010C94A3030C940000809162004C
S1130080883021F481E08093620008958F5F80932B
S1130090620008950F931F93CF93DF9300D000D095
S11300A000D0CDB7DEB71A821982CE0101960E9424
S11300B0DA00809361001A8211E01983CE0101965F
S11300C00E94DA00809361001A8282E08983CE0163
S11300D001960E94DA00809361001A8203E009838A
S11300E0CE0101960E94DA00809361001A8319827E
S11300F0CE0101960E94DA00809361001A8319836D
S1130100CE0101960E94DA00809361001B820C8369
S11301108EE390E09E838D83CE0103960E94A60217
S11301208093600026960FB6F894DEBF0FBECDBF55
S1130130DF91CF911F910F910895CF93DF9300D05A
S1130140CDB7DEB780916000813049F48A8319828B
S1130150CE0101960E94FA008093610026C082308D
S113016051F481E08A838983CE0101960E94FA00CA
S1130170809361001AC0809162009FEF980F9430C1
S113018048F41A829983CE0101960E94FA00809362
S113019061000BC08550843040F41A828983CE01FB
S11301A001960E941701809361000F900F90DF91D8
S11301B0CF910895CF93DF9300D01F92CDB7DEB7D0
S11301C021E02B83FC012181298380818A83CE0154
S11301D001960E943901813021F0833021F080E0C2
S11301E003C081E001C082E00F900F900F90DF9177
S11301F0CF910895CF93DF9300D0CDB7DEB7FC0144
S11302002181298380818A8361E0CE0101960E9445
S1130210F501813021F0833021F080E003C081E0DA
S113022001C082E00F900F90DF91CF910895CF939A
S1130230DF9300D0CDB7DEB7FC0121812983808113
S11302408A8360E0CE0101960E94F501813021F09D
S1130250833021F080E003C081E001C082E00F9090
S11302600F90DF91CF9108950E944A000E949D0053
S1130270FDCFFC019081913071F138F0923009F496
S113028050C0933009F473C096C08281813081F4E8
S11302902181283008F091C03AB381E090E002C097
S11302A0880F991F2A95E2F7832B8ABB80E0089573
S11302B0811185C02181283008F083C03AB381E0E0
S11302C090E002C0880F991F2A95E2F78095832356
S11302D08ABB80E008958281813081F421812830B5
S11302E008F071C037B381E090E002C0880F991F15
S11302F02A95E2F7832B87BB80E00895811165C0BE
S11303002181283008F063C037B381E090E002C057
S1130310880F991F2A95E2F78095832387BB80E095
S113032008958281813081F42181283008F051C000
S113033034B381E090E002C0880F991F2A95E2F758
S1130340832B84BB80E00895811145C0218128302E
S113035008F043C034B381E090E002C0880F991FD5
S11303602A95E2F78095832384BB80E008958281F7
S1130370813079F42181283090F531B381E090E027
S113038002C0880F991F2A95E2F7832B81BB80E076
S11303900895811126C02181283028F531B381E0E8
S11303A090E002C0880F991F2A95E2F78095832375
S11303B081BB80E0089583E0089581E0089582E0A0
S11303C0089581E0089581E0089582E0089581E030
S11303D0089581E0089582E0089581E0089581E020
S11303E0089582E0089581E00895FC0190819130A0
S11303F069F138F0923009F44EC0933009F470C0BA
S113040093C08181883008F091C0613071F44BB39E
S113041021E030E0B90102C0660F771F8A95E2F748
S1130420CB01842B8BBB80E00895611181C04BB359
S113043021E030E0B90102C0660F771F8A95E2F728
S1130440CB01809584238BBB80E008958181883023
S113045008F070C0613071F448B321E030E0B901B4
S113046002C0660F771F8A95E2F7CB01842B88BB05
S113047080E00895611160C048B321E030E0B90123
S113048002C0660F771F8A95E2F7CB01809584231B
S113049088BB80E008958181883008F04FC06130C6
S11304A071F445B321E030E0B90102C0660F771F53
S11304B08A95E2F7CB01842B85BB80E00895611116
S11304C03FC045B321E030E0B90102C0660F771F99
S11304D08A95E2F7CB018095842385BB80E008955B
S11304E08181883078F5613071F442B321E030E0E5
S11304F0B90102C0660F771F8A95E2F7CB01842BFE
S113050082BB80E0089561111FC042B321E030E056
S1130510B90102C0660F771F8A95E2F7CB01809577
S1130520842382BB80E0089583E0089581E00895E8
S113053084E0089581E0089584E0089581E00895B9
S113054084E0089581E0089584E008950F931F9353
S1130550CF93DF9300D01F92CDB7DEB78C018FB756
S113056080688FBFD8018C9181110AC01B8282E000
S11305708A8383E08983CE0101960E94390178C081
S1130580813009F066C01B8283E08A838983CE01AF
S113059001960E9439016CC0F8018181811107C064
S11305A085B78E7F85BF85B78D7F85BF6DC0813050
S11305B039F485B7816085BF85B78D7F85BF64C0F9
S11305C0823039F485B78E7F85BF85B7826085BF59
S11305D05BC0833009F052C085B7816085BF85B7A1
S11305E0826085BF51C0813009F04AC0D80111969C
S11305F08C91811107C085B78B7F85BF85B7877FB5
S113060085BF42C0813039F485B7846085BF85B722
S1130610877F85BF39C0823039F485B78B7F85BF2A
S113062085B7886085BF30C0833061F585B7846045
S113063085BF85B7886085BF27C08BB780648BBFB3
S113064080E00AC0813039F48BB780688BBF80E0CA
S113065003C081E001C081E0F80122813381E0819F
S1130660F0E0EE0FFF1FED59FF4F3183208311C0DF
S1130670D8018C91882309F48FCFB5CF82E0ECCFD9
S113068081E0EACF82E0E8CFF80180818111DACFFE
S1130690D4CF0F900F900F90DF91CF911F910F91B6
S11306A008951F920F920FB60F9211242F933F9328
S11306B04F935F936F937F938F939F93AF93BF9366
S11306C0EF93FF93E0916300F0916400309709F099
S11306D00995FF91EF91BF91AF919F918F917F9178
S11306E06F915F914F913F912F910F900FBE0F909B
S11306F01F9018951F920F920FB60F9211242F93EB
S11307003F934F935F936F937F938F939F93AF9395
S1130710BF93EF93FF93E0916500F09166003097EB
S113072009F00995FF91EF91BF91AF919F918F913E
S11307307F916F915F914F913F912F910F900FBED9
S10D07400F901F901895F894FFCF56
S9030000FC
